:020000040800F2
:100000006804002045010008C5090008C10900086E
:10001000C3090008D5070008A91600080000000061
:10002000000000000000000000000000A50C000817
:10003000D7070008000000009D0A0008510D0008C5
:100040005F0100085F0100085F0100085F01000810
:100050005F0100085F0100085F0100085F01000800
:100060005F0100085F0100085F0100085F010008F0
:100070005F0100085F0100085F0100085F010008E0
:100080005F0100085F0100085F0100085F010008D0
:100090005F0100085F0100085F0100085F010008C0
:1000A0005F0100085F0100085F0100085F010008B0
:1000B000E50E00085F010008450F00085F01000819
:1000C0005F0100085F0100085F0100085F01000890
:1000D0005F010008B11400085F010008C1140008A6
:1000E0005F0100085F0100085F0100085F01000870
:1000F0005F0100085F0100085F0100085F01000860
:100100005F0100085F010008690F00085F01000837
:100110005F0100085F0100085F0100085F0100083F
:100120005F0100085F0100085F0100085F0100082F
:10013000DFF80CD000F0AEFA00480047991F000825
:10014000680400200648804706480047FEE7FEE7AF
:10015000FEE7FEE7FEE7FEE7FEE7FEE7FEE7FEE777
:10016000550D00083101000830B480EA010202F0A8
:10017000004530F0004221F0004013D090B1C30D93
:10018000D40DC2F31601C0F31600E41A41F40001C5
:1001900040F400027D34914201D3641C00E0490028
:1001A000002C02DA30BC002070474FF4000000231E
:1001B000914201D3891A034340084FEA4101F7D124
:1001C00051B1914202D14FF0004105E002D24FF00F
:1001D000010101E06FF0010103EBC450284430BC81
:1001E00000F069B8C10F80EAE0700844CA0796239E
:1001F000002100F069B800F0004220F00040C10D7D
:10020000C0F3160040F400007F2901DA0020704797
:10021000962903DCC1F19601C84001E09639884077
:10022000002AF4D04042704730B50B46014600200A
:100230002022012409E021FA02F59D4205D303FAA8
:1002400002F5491B04FA02F52844151EA2F1010229
:10025000F1DC30BD2DE9F05F0546002092469B465B
:1002600088460646814640241BE0284641464746CC
:10027000224600F030FA53465A46C01A914110D334
:1002800011461846224600F017FA2D1A67EB0108AE
:100290004F4622460120002100F00EFA17EB00091C
:1002A0004E41201EA4F10104DFDC484631462A46B7
:1002B0004346BDE8F09F0029A8BF7047401C490095
:1002C00008BF20F00100704710B4B0FA80FC00FABB
:1002D0000CF050EA010404BF10BC704749B1CCF1E6
:1002E000200421FA04F411FA0CF118BF0121214372
:1002F0000843A3EB0C01CB1D4FEA00614FEA10202D
:1003000042BF002010BC704700EBC35010440029CE
:10031000A4BF10BC7047401C490008BF20F001007A
:1003200010BC70472DE9FE4F804681EA0300C00FE4
:100330000C46009021F0004123F00045B8EB02008C
:10034000A94105D24046214690461C460B4602462E
:1003500023F00040104347D0270DC7F30A00C3F332
:100360000A510290401A019040286BDAC3F313003F
:1003700040F4801B0098924620B10023D2EB030A80
:1003800063EB0B0B01985946C0F14002504600F058
:1003900093F906460D4650465946019A00F0ABF9CE
:1003A00010EB08006141002487EA115284EAE773E8
:1003B0001A4340D0009A62B3019A012A4FEA0752C9
:1003C00015DC001B61EB02014FF0004202EA07520C
:1003D000CDE90042001C41F5801132462B4600F069
:1003E000ABF903B0BDE8F08F40462146F9E7001BAA
:1003F00061EB0201001C41F5801300185B412018DD
:10040000A2F5001747EB030140EAD570B6196D411C
:1004100011E06D084FEA360645EAC0754FEA07520B
:10042000001B61EB0201001C41F5801149084FEAF5
:1004300030000019514132462B4603B0BDE8F04F61
:1004400000F06BB90098012240000023D0EB0202BB
:1004500063EBE073009821464FEAE074B8EB0000CC
:1004600061EB0401E9E783F000435BE781F00041C1
:1004700058E72DE9FE4F81EA030404F0004421F01F
:10048000004100944FF0000B23F0004350EA0104B8
:100490005ED052EA03045BD0C3F30A54C1F30A5599
:1004A0002C44A4F2F3340194A0FB0254C1F31301D1
:1004B00041F48011C3F3130343F4801301FB02449E
:1004C00000FB034E840A970A44EA815447EA8357A3
:1004D000A4FB076802958D0A05FB07854FEA932C5C
:1004E00004FB0C542705029D4FEA065847EA1637CD
:1004F000B5EB08056EEB070C870E920E47EA8117E5
:1005000042EA8312A7FB0201B6EB0B0164EB000485
:100510002B0D43EA0C335E1844EB1C50DA4651466F
:10052000E7FB0201C5F313044FEA0B3343EA14530C
:100530004FEA0432019C43EA0603A4F10C0402943E
:10054000009CCDE900B400F0F7F803B0BDE8F08FEF
:1005500000200146F9E72DE9F04D81EA030404F09B
:10056000004B21F0004514464FF0000A23F00041F3
:1005700050EA050220D054EA01021DD0C5F30A5703
:100580000246C5F31303C1F31300C1F30A5640F446
:10059000801543F48013A7EB0608101BD64608F21B
:1005A000FD3873EB050002D308F1010801E0921851
:1005B0005B41B8F1000F03DA00200146BDE8F08D81
:1005C00000204FF48011064684460EE0171B73EBA3
:1005D000050705D3121B63EB050306434CEA010C28
:1005E00049084FEA300092185B4150EA0107EDD10B
:1005F00052EA030012D082EA040083EA05010843AC
:1006000005D0101BAB4106D20122002306E00022D8
:100610004FF0004302E06FF0010253101AEB0600A6
:100620004CEB085110EB0A0041EB0B01BDE8F04D1B
:1006300000F073B8C1F30A52C1F3130140F2FF3363
:1006400041F480119A4202DA00200146704740F2DC
:1006500033439A42A2F2334202DC524200F03BB8EA
:1006600000F02AB830B5041E71F1000404DB4FF02D
:100670000044404264EB0101141E73F1000405DBE9
:100680001C464FF00043524263EB0403994208BFFB
:10069000904230BD064C074D06E0E06840F0010393
:1006A00094E8070098471034AC42F6D3FFF744FDB6
:1006B0002820000848200008202A04DB203A00FAFD
:1006C00002F1002070479140C2F1200320FA03F3A9
:1006D000194390407047202A04DB203A21FA02F0A7
:1006E0000021704721FA02F3D040C2F1200291406C
:1006F000084319467047202A06DBCB17203A41FAF7
:1007000002F043EAE07306E041FA02F3D040C2F19E
:100710002002914008431946704710B5141E73F12A
:10072000000408DA401C41F1000192185B411A43B1
:1007300001D120F0010010BD2DE9F04D92469B46FD
:1007400011B1B1FA81F202E0B0FA80F220329046A3
:10075000FFF7B2FF04460F4640EA0A0041EA0B01E8
:1007600053465A46084313D0114653EA010019D0A4
:10077000C8F140025046FFF7AEFF05460E46504610
:1007800059464246FFF798FF084305D0012004E090
:1007900020463946BDE8F08D0020054346EAE07664
:1007A0002C4337430A986305E40AA0EB08000022B3
:1007B000FD0A44EA47540A3002D500200146E9E721
:1007C000010510196941DDE9084500196941BDE8D5
:1007D000F04DA2E7FEE7704770B50121042000F05C
:1007E000A3F81E4C032223460421802000F03CF88D
:1007F000234603221821402000F036F8012108206A
:1008000000F092F8164D03222B461821202000F00C
:100810002BF82B4603220421402000F025F8234624
:1008200003221821201500F01FF80421234603227B
:10083000480200F019F80121080300F075F80322BE
:100840002B460421100300F00FF8BDE8704003228E
:10085000044B0421104600F007B80000000C0140D2
:10086000001401400008014030B4044604480480EC
:10087000C1708270014630BC184600F003B8000019
:1008800008000020F0B5CA78002502F00F03D20658
:1008900001D58A7813430A784FF00F0E12F0FF0F3C
:1008A0004FF001021CD004680F8802FA05F63740A9
:1008B000B74211D14FEA850C0EFA0CF724EA07076C
:1008C00003FA0CF43C43CF78282F02D0482F02D0F3
:1008D00002E0466100E006616D1C082DE4D304606F
:1008E0000C88FF2C1ED944685FF0000606F108074B
:1008F00002FA07F50F882F40AF420FD14FEA860C5E
:100900000EFA0CF7BC4303FA0CF73C43CF78282FC0
:1009100000D14561CF78482F00D10561761C082EA3
:10092000E4D34460F0BD0000F0B5144C002801DAB7
:10093000E36900E06368420D120185B2C0F301571C
:100940009540C0F30346032F05D0C2020AD5032207
:10095000B240934307E023F07062636823F0706352
:10096000636002E0AB4343F0706201B12A430028A8
:1009700001DAE261F0BD6260F0BD000000000140FC
:1009800070B50C46054600F05EFC0B49A0F57A6098
:1009900051F82420104441F824004FF47A60A884D0
:1009A00051F82400FFF71EFC0449FFF7DDFB024964
:1009B0000C3141F8240070BD4C0000200000FA44C6
:1009C000FEE7FEE7704700002DE9F0414FF4407765
:1009D000384600F059F8124C1C2000252070657034
:1009E000A5700126E670204600F01CF8384600F09D
:1009F0004BF82720207002206070A570E67020461A
:100A000000F010F8384600F03FF8072020706670BC
:100A1000A570E6702046BDE8F04100F003B8000084
:100A20000C00002070B50F23C47801780122F4B1C6
:100A3000144C2468457804F4E064C4F5E064240AA6
:100A4000C4F10406E3408478B5401C402C4301F116
:100A5000E021230181F80034007800F01F018A4072
:100A60004009800000F1E020C0F8002170BD01F0D5
:100A70001F0082404809800000F1E020C0F880217A
:100A800070BD00000CED00E0024908430249086017
:100A9000704700000000FA050CED00E07047000010
:100AA000044A0029516901D0014300E081435161AA
:100AB0007047000000100240044A0029D16901D0AB
:100AC000014300E08143D161704700000010024003
:100AD000044A0029116901D0014300E081431161FA
:100AE0007047000000100240044A0029916901D0BB
:100AF000014300E081439161704700000010024013
:100B0000044A0029D16801D0014300E08143D1604B
:100B1000704700000010024010B500F05BF800F0D4
:100B200019F92B4800F076F801210846FFF7DCFFA1
:100B300001210420FFF7D8FF01210820FFF7D4FF8F
:100B400001211020FFF7D0FF01212020FFF7CCFF6B
:100B500001214020FFF7C8FF01218020FFF7C4FFDB
:100B600001210802FFF7C0FF01218C032046FFF797
:100B7000BBFF01214804FFF79FFF01218804FFF715
:100B80009BFF01212046FFF797FF01210846FFF751
:100B900087FF0121C802FFF7A7FF01210846FFF7E1
:100BA0008BFF01210220FFF787FF01210420FFF7BF
:100BB00083FF01210820FFF77FFF01211020FFF7AD
:100BC0007BFF0121BDE810404803FFF78DBF000007
:100BD000240000200C48016841F0010101604168D7
:100BE0000A4A114041600168094A114001600168E8
:100BF00021F480210160416821F4FE0141604FF43D
:100C00001F01816070470000001002400000FFF8E3
:100C1000FFFFF6FE30B51F494A6812F00C031E4A6A
:100C200003D0042B01D0082B21D002604A680F2387
:100C30001A4C03EA1212A35C0268DA4042604B6865
:100C4000072505EA1323E35C22FA03F383604B686C
:100C500005EAD323E35CDA40C2604968032303EA70
:100C60009131231F595CB2FBF1F1016130BD4A683B
:100C70004B6802F470124FF0020413F4803F04EB4F
:100C8000924202D04B689B0301D5054B00E0024B1A
:100C90005A43CAE70010024000127A0014000020F4
:100CA00000093D00704700000CB500212648019165
:100CB0000091026842F4803202604FF4A06302683F
:100CC00002F400320092019A521C0192009A12B969
:100CD000019A9A42F3D10268920333D5012100911F
:100CE0001A490A6842F010020A600A6822F00302F8
:100CF0000A600A6842F002020A6041684160416885
:100D00004160416841F480614160416821F47C1197
:100D10004160416841F4E8114160016841F080712F
:100D2000016001688901FCD5416821F0030141603F
:100D3000416841F0020141604168C1F3810102292B
:100D4000FAD10CBD00910CBD001002400020024001
:100D5000704700000F4810B5016841F001010160C3
:100D600041680D4A1140416001680C4A1140016020
:100D7000016821F480210160416821F4FE01416095
:100D80004FF41F018160FFF78FFF05494FF00060AE
:100D9000086010BD001002400000FFF8FFFFF6FEE3
:100DA00008ED00E070B5048C24F001040484058B88
:100DB000048C4FF6FF7606EA0313134325F0F30580
:100DC0000E4A2B4390420ED00D4A90420BD0B0F108
:100DD000804F08D00B4A904205D00B4A904202D077
:100DE0000A4A904202D124F0020201E024F00A02F1
:100DF0000A4342F001010383018470BD002C0140CD
:100E0000003401400004004000080040000C004095
:100E1000F0B5048C24F010040484078B048C4FF686
:100E2000FF7527F4734705EA03333B4305EA0222C3
:100E30001A43114B05EA011698420ED00F4B984207
:100E40000BD0B0F1804F08D00D4B984205D00D4B20
:100E5000984202D00C4B984205D124F02001314336
:100E600041F0100104E024F0A0030B4343F0100113
:100E700002830184F0BD0000002C014000340140D9
:100E80000004004000080040000C004010B50121A3
:100E90000846FFF711FE4FF08044204600F002F9AB
:100EA0000F4800F0FBFA0E4941F28730002208801B
:100EB00041F61F408880CA804A80204600F0A0FA90
:100EC0000121204600F0DEF801221146204600F004
:100ED00067FA2046BDE81040012100F0D9B80000B3
:100EE0003800002010B501218C07204600F0ADF934
:100EF000002811D00949081F01F080F8074910485F
:100F0000091FD1E9002306A101F053F82046BDE8EE
:100F10001040012100F0B9B810BD0000040000200D
:100F2000726F756E645F78203D2025643B0D0A0961
:100F3000726F756E645F79203D2025640D0A000094
:100F40000048004010B5074C0121204600F07DF913
:100F5000002805D02046BDE81040012100F095B8DA
:100F600010BD00000008004010B5074C01212046CC
:100F700000F06BF9002805D02046BDE810400121A3
:100F800000F083B810BD0000000C00402DE9F047D0
:100F900001210420FFF790FDDFF8DCA0504600F0AF
:100FA00081F8364800F07AFA344C002547F22F5683
:100FB0002580A680E58065802146504600F020FA15
:100FC00000231A460321504600F024F904F10A00D8
:100FD00000F0DEF904F10A080627A8F80870414677
:100FE000504600F03FF924494FF47A692431A1F8C2
:100FF00000900121504600F045F80122114650466C
:1010000000F0CEF90121504600F042F801210820FD
:10101000FFF752FDDFF868A0504600F043F8204685
:1010200000F03CFA2580A680E58065802146504688
:1010300000F0E6F900231A460321504600F0EAF8D2
:10104000404600F0A5F9A8F808704146504600F067
:1010500009F90B492431A1F800900121504600F014
:1010600011F801221146504600F09AF95046BDE8A9
:10107000F047012100F00CB80008004038000020C3
:10108000000C0040C94301827047C9430182704788
:101090000029018802D041F0010101E021F00101A5
:1010A000018070474B4910B5884202D10121C41418
:1010B00086E0B0F1804F09D0474988420DD1012127
:1010C0000220FFF705FD0021022064E0012108460F
:1010D000FFF7FEFC002101205DE04049884206D177
:1010E00001210420FFF7F4FC0021042053E03C49D7
:1010F000884206D101210820FFF7EAFC00210820E0
:1011000049E03849884206D101211020FFF7E0FC70
:10111000002110203FE03449884206D101212020DF
:10112000FFF7D6FC0021202035E03049884202D16B
:101130000121441444E02E49884202D10121CC040B
:101140003EE02C49884202D101210C0538E02A49B1
:10115000884202D101214C0532E02849884206D15B
:1011600001214020FFF7B4FC0021402013E0244976
:10117000884206D101218020FFF7AAFC00218020AF
:1011800009E0204988420AD1841501212046FFF751
:101190009FFC00212046BDE81040FFF799BC1A498A
:1011A000884202D101210C040AE01849884202D188
:1011B00001214C0404E0164988420AD101218C0423
:1011C0002046FFF79DFC2046BDE810400021FFF7B8
:1011D00097BC10BD002C01400004004000080040F6
:1011E000000C00400010004000140040003401409A
:1011F000004C0140005001400054014000180040E4
:10120000001C00400020004000400140004401401C
:101210000048014070B50589048B068C25F0070550
:101220000D434FF6FC410C4040F201110C434FF6C8
:10123000FF7101EA031126F02206114331430581B3
:101240000483018470BD808C704702460020138A9D
:1012500092890B4202EA010202D0002A00D001204A
:10126000704700002DE9F05F0D4604460888434FA3
:10127000DFF80CC1DFF80C814988AA882B894FF070
:10128000804960B3042833D04FF6FF7E082838D059
:10129000208C9B4620F480502084A38B268C7046A3
:1012A00000EA022223F473431A4300EA0B3010438E
:1012B0000EEA013EBC420BD0644509D04C4507D034
:1012C000444505D0304A944202D0304B9C4248D12C
:1012D00026F4005141EA0E0141F4805146E02046D7
:1012E000FFF760FDE9882046BDE8F05F00F060B8D8
:1012F0002046FFF78DFDE9882046BDE8F05F00F04D
:101300005FB8208C20F480702084B4F81CA0208C5E
:101310000EEA031313432AF0F30A0EEA012B43EA01
:101320000A03BC420BD0644509D04C4507D0444564
:1013300005D0154A944202D0144A944204D120F4B4
:10134000007040EA0B0002E020F42060084340F403
:101350008070A3832084E9882046BDE8F05F00F018
:101360003BB826F402420A4342F48051A08320464F
:101370002184E988BDE8F05F00F036B8002C014018
:10138000003401400004004000080040000C004010
:1013900000210180418001228280C180018170474B
:1013A000002A828901D00A4300E08A438281704783
:1013B000028B22F00C020283028B0A4302837047E5
:1013C000028B22F440620283028B4FF6FF7303EA22
:1013D00001210A4302837047828B22F00C02828330
:1013E000828B0A4382837047828B22F4406282831D
:1013F000828B4FF6FF7303EA01210A438283704711
:1014000030B502881B4B1C4C98420DD0A0420BD02B
:10141000B0F1804F08D0194DA84205D0184DA84210
:1014200002D0184DA84203D122F070054A882A4301
:10143000154DA84206D0154DA84203D022F44075A0
:10144000CA882A4302808A8882850A88028598424F
:101450000AD0A04208D00E4A904205D00D4A9042D0
:1014600002D00D4A904201D1097A01860121818280
:1014700030BD0000002C0140003401400004004059
:1014800000080040000C0040001000400014004024
:101490000040014000440140004801404FF6FF7108
:1014A000818000210180C18041800172704700006D
:1014B00040F22551014800F00EB80000003801400C
:1014C00040F22551014800F006B800000038014004
:1014D000C943018070470A0A01219140C943018034
:1014E00070470029818902D041F4005101E021F4C4
:1014F00000518181704700002DE9FF410024264FF3
:101500004FF4E135ADF80440ADF808400C260095E5
:10151000ADF80640ADF80C40ADF80A6069463846B3
:1015200000F068F801213846FFF7DBFF1B4FADF8EC
:101530000440ADF808400095ADF80640ADF80C4009
:10154000ADF80A606946384600F054F8012240219F
:10155000384600F027F801213846FFF7C2FFADF802
:101560000440ADF80640ADF80840ADF80C400C4C16
:101570000095ADF80A606946204600F03BF801216D
:101580002046FFF7AEFF012240F22551204600F031
:1015900018F8BDE8FF810000003801400044004019
:1015A00000480040002A828A01D00A4300E08A43B2
:1015B000828270470246002012880A4200D0012031
:1015C000704710B5C1F3421301F01F040121A1407F
:1015D000012B07D0022B07D01430002A026805D057
:1015E0000A4304E00C30F8E71030F6E78A43026063
:1015F00010BD000030B50446008A85B00D464CF69B
:10160000FF710840E98801432182A1894EF6F31059
:101610000140A8882A8910436A890A431043A0819F
:10162000A08A4FF6FF410840A9890143A18268467C
:10163000FFF7F0FA1948844201D1039800E00298BC
:10164000A189090400EBC00101EB0010296801D554
:10165000490000E08900B0FBF1F06422B0FBF2F138
:1016600009010B096FF018056B4300EB8300A38998
:101670001D044FF0320306D503EBC000B0FBF2F0BF
:1016800000F0070005E003EB0010B0FBF2F000F003
:101690000F000843208105B030BD00000038014034
:1016A000C1F3080181807047FEE700007CB5491E48
:1016B0001C461546CDE90001044B6A4621462846E2
:1016C00000F0C8F8009A002111707CBD831F00084B
:1016D00002E008C8121F08C1002AFAD170477047FB
:1016E000002001E001C1121F002AFBD17047000059
:1016F0002DE9FF5FDDE90220010DDDF838B002437E
:1017000018D044F61050A1F2FF3141430D140F9848
:10171000012820D0A5EB0B00401C5FEA000A4FF027
:101720000004474EDFF81C91A046504616D5CAF17A
:10173000000728E00F98012443A2012808D00021C7
:1017400000980F9BC0E90021C0E90243BDE8FF9F5C
:101750006FEA0B01F4E7CBF10000DEE7074612E089
:10176000F80707D02246334640464946FEF781FE39
:10177000804689462246334610461946FEF779FED2
:1017800004460E467F10002FEAD1DDE90201BAF1CE
:10179000000F42464B4602DAFEF76BFE01E0FEF711
:1017A000DAFE04460E460022284BFEF75BFF03D804
:1017B0004FF0FF30014607E00022254B204631461E
:1017C000FEF7B0FDFEF736FF102409E0002C0ADB1F
:1017D0000A220023FEF73EFD019B30321A55641E9B
:1017E00050EA0102F2D1641C019AC4F111031444BD
:1017F0000F9A012A03D0012208430DD10AE00843C1
:1018000004D000204FF0110B0F9080E7A3EB0B05E5
:101810006D1E0DE05B4504DD4FF0000205F1010592
:1018200004E003DA4FF00002A5F10105002AECD034
:1018300000980F99C0E90231C0E9004586E7000031
:10184000000024400000F03F300000000000F043A2
:101850000000E03F2DE9FF4F95B09B4689460646C4
:1018600000250FE2252877D100242746F84A0121D8
:10187000059400E0044316F8013F203B01FA03F011
:101880001042F7D130782A2811D06FF02F0330782A
:10189000A0F13002092A16D8059A44F0020402EB9E
:1018A000820203EB42021044761C0590EFE759F8E0
:1018B000042B0592002A03DA504244F400540590A8
:1018C00044F00204761C30782E2816D116F8010F49
:1018D00044F004042A280DD06FF02F023078A0F1D4
:1018E0003003092B09D807EB870302EB4303C71822
:1018F000761CF3E759F8047B761C30786C280FD0FF
:1019000006DC4C2817D068280DD06A2814D104E0D2
:10191000742810D07A280FD10DE044F400140AE0A6
:1019200044F4801401E044F440147278824202D1FD
:1019300004F58014761C761C307866280BD013DCF6
:10194000582877D009DC002875D04528F6D04628DD
:10195000F4D047281AD19DE118E0632835D06428D7
:1019600079D0652812D195E1702873D008DC6728FA
:10197000F1D069286FD06E280DD06F2806D1B5E060
:1019800073282CD0752875D0782874D05A461799AA
:1019900090476D1C75E1C4F30250022809D003285A
:1019A0000DD0D9F8001004280DD00D6009F10409FC
:1019B00067E1D9F80010EA17C1E90052F6E7D9F853
:1019C00000100D80F2E70D70F0E719F8041B8DF898
:1019D000001000208DF80100EA46012003E059F8CC
:1019E00004AB4FF0FF3061074FF0000102D40DE06F
:1019F00008F101018846B9420FDA8045F8DB1AF890
:101A000008100029F4D108E008F10101884681425C
:101A1000FADB1AF808100029F6D105985B46A0EB0E
:101A2000080721463846179A00F094FA284400EB3C
:101A3000080507E04DE029E10DE01AF8010B5A46D0
:101A400017999047B8F10108F7D25B46214638460E
:101A5000179A13E142E00A220092C4F302524FF0B7
:101A6000000A022A08D059F804CB032A4FEAEC7185
:101A70000AD00DE029E02AE009F1070121F0070270
:101A8000F2E802C1914609E00FFA8CFC4FEAEC71D2
:101A9000042A03D14FFA8CFC4FEAEC71002907DAD3
:101AA0000A460021DCF1000C61EB02012D2202E06C
:101AB000220504D52B228DF80420012203E0E20741
:101AC00001D02022F7E7904659E00A2102E01022D7
:101AD0000DE010214FF0000A00910BE010224FF0B2
:101AE000000A44F004040827009203E008224FF0A3
:101AF000000A0092C4F30252022A05D059F804CB1E
:101B00000021032A08D009E009F1070121F00702AA
:101B1000F2E802C1914605E01FFA8CFC042A01D1CB
:101B20000CF0FF0C4FF00008220728D5702806D0D3
:101B3000009B83F0100353EA0A0305D00EE0402215
:101B40008DF80420012208E05CEA010206D0302270
:101B50008DF804208DF8050002229046009B83F04A
:101B6000080353EA0A030AD15CEA010201D16207C1
:101B700005D530228DF804204FF001087F1E58282B
:101B800004D034A003900EA802900DE036A0F9E72F
:101B900053466046009AFEF75DFB84460398825CDC
:101BA0000298401E029002705CEA0100F0D1029897
:101BB00006A9081A00F1200A600702D524F480342F
:101BC00000E00127574502DDA7EB0A0000E00020F6
:101BD00000EB0A01009005984144401A0590E0038B
:101BE00006D45B462146179A059800F0B3F90544E0
:101BF000002706E001A85A46C05D179990476D1C62
:101C00007F1C4745F6DBE0030CD55B462146179A5F
:101C1000059800F09FF9054404E030205A461799D2
:101C200090476D1C0099481E00900029F5DC08E0E3
:101C3000029802995A460078491C029117999047D8
:101C40006D1CBAF10001AAF1010AF1DC65E10000A6
:101C50000928010030313233343536373839616282
:101C60006364656600000000303132333435363746
:101C700038394142434445460000000000F058F91D
:101C80000544761C307800287FF4ECAD19B0284666
:101C9000BDE8F08F620700D4062709F1070222F0A1
:101CA000070CFCE80223E14603F000485FEA080C59
:101CB00002D00FF2702C0DE05FEA045C02D50FF247
:101CC000682C07E05FEAC47C02D00FF2602C01E0D0
:101CD000AFF2700C4FF0FF3823F00043CDF850C046
:101CE00065280CD006DC452809D046281DD0472899
:101CF0003DD13DE0662818D067287ED138E000212C
:101D0000112F01DB112000E0781CCDE9000106A9AC
:101D10000EA8FFF7EDFCDDE90F010E9A03910021FB
:101D2000009207F1010A04914DE04FF00040009746
:101D3000CDE9011006A90EA8FFF7DAFCDDE90F02D4
:101D400003920E9B11990022DDF80CA000930492DF
:101D500011B9791C00EB010AB7EB0A0004D4C0F1F9
:101D6000FF3007F1010A0490AAEB0700019044E05C
:101D7000012F00DA01270021112F01DD112000E0E1
:101D80003846CDE9000106A90EA8FFF7B1FCDDE950
:101D90000F010E9A0391002104910092BA46210787
:101DA0000CD40399514500DA8A46BAF1010F05DDDA
:101DB000009AAAF10101515C302908D0B84202DA38
:101DC00010F1040F06DA0121CDE9011015E0AAF1A6
:101DD0000101E9E7002805DC049901440491AAEB1C
:101DE000000102E0411C514500DD8A460499401A79
:101DF000401C01904FF000400290200704D401984D
:101E0000504501DBCDF8048000208DF84F0002988A
:101E10000DF14F07B0F1004F25D02B200E90029806
:101E20004FF0020800280CDA404202902D200E905C
:101E300007E00A210298FEF7F7F93031029007F81F
:101E4000011DB8F10001A8F10108F2DC0298002898
:101E5000EFD1791E0E980870307800F0200040F025
:101E6000450007F8020D12A8C01B00F107081498DE
:101E7000007800B1012000EB0A01019801EBE0714C
:101E800005984144401A401E0590E00306D45B4685
:101E90002146179A059800F05DF8054414980078DB
:101EA00018B15A46179990476D1CE00324D55B463C
:101EB0002146179A059800F04DF805441CE0049857
:101EC000002807DBDDE90301884203DD0098405C60
:101ED000179901E0179930205A469047049805F168
:101EE0000105401C04900198401E019004D12E2051
:101EF0005A46179990476D1CBAF10001AAF1010AE0
:101F0000DDDC05E017F8010B5A46179990476D1C68
:101F1000B8F10001A8F10108F4DC5B462146179AEC
:101F20000598ABE62D0000002B000000200000000B
:101F30002DE9F041044600251E461746880404D4C6
:101F400005E039462020B0476D1C641EF9D52846AF
:101F5000BDE8F0812DE9F041044600251E4690467B
:101F6000C80301D5302700E02027880404D505E008
:101F700041463846B0476D1C641EF9D52846BDE879
:101F8000F0814A68002A06D00A68531C0B60107062
:101F90004868401E48607047FEF7BEFDFEF71CFC17
:101FA000FFF7AAFAFEF710FDFEF770FFFEF7EEFF4F
:101FB000FEE70FB4652170B59AB00646002420AB49
:101FC00068461F9AFFF772FB80213046FFF780FAC0
:101FD0006D460CE0641CE4B23046FFF761FB8021E3
:101FE0003046FFF7E7FA0028F9D0642C02D2295DC9
:101FF0000029EFD11AB070BC5DF814FB70B50C4627
:10200000054601210648FEF7BBFCFEF7F4F8286000
:1020100002210448FEF7B4FCFEF7EDF8206070BD25
:10202000000C00400008004048200008000000208C
:1020300024000000D01600086C20000824000020B6
:1020400044040000E016000800000000000000004A
:10205000000000000000000002040608000000006C
:0C20600001020304010203040607080942
:0400000508000131BD
:00000001FF
